:020000040800F2
:10000000600C0020E1000008D1010008CF010008C9
:1000100000000000000000000000000000000000E0
:10002000000000000000000000000000E3010008E4
:100030000000000000000000E1010008E5010008E8
:100040000D0100080D0100080D0100080D01000858
:100050000D0100080D0100080D010008CD01000888
:10006000000000000D010008990100080D010008C2
:100070000D0100080D0100080D010008000000003E
:100080000D0100080D010008000000000D0100082E
:10009000C90400085D0600080D0100080D010008F4
:1000A0000D0100080D0100080D010008C10600083F
:1000B0000D0100080000000000000000000000002A
:1000C0000D010008000000000D01000803488546EE
:1000D00000F04AF800480047D5110008600C0020E5
:1000E0000B4802680B480240120C92020A4940F287
:1000F000000001C1121F002AFBD1084880470848B0
:100100000047FEE7FEE7FEE7FEE7FEE7FEE700004A
:10011000E0F7FF1F0000FFFF00000020E9010008DA
:10012000CD00000810B5044605E00B780370401CB4
:10013000002B00D0491C521EF7D2204610BD421C95
:100140000178401C0029FBD1801A704710B50022AD
:1001500000E0521C835C8C5CA34201D1002BF8D1DF
:10016000D8B2E1B2401A10BD1CB509480090094848
:10017000019005460126009C05E0E36807CC334367
:100180000C3C98471034AC42F7D3FFF7A3FF0000B4
:100190005C1800087C180008B0B50120022100F0AE
:1001A000B7FD70B101240221204600F0A7FD0548EB
:1001B0000025294601F09AFA204600F031FD024858
:1001C0000570B0BD00380140540400207047FEE7C0
:1001D00040F2001001F044F9012800D1FEE7FEE7EB
:1001E000FEE7FEE700F012BDF0B485B0AE48031F95
:1001F0001A6801210A431A601A68920708D41A681B
:10020000920705D41A68920702D41A689207F3D5A8
:1002100004680C221440082C4FD104680394F02485
:10022000039DA54303958025039E2E430396039DBE
:10023000056000250495049E7F2E17D8049E761C29
:100240000496049E7F2E11D8049E761C0496049E6C
:100250007F2E0BD8049E761C0496049E7F2E05D814
:10026000049E761C0496049E802EE7D306680396AF
:10027000039EA64303969024039E26430396039C65
:1002800004600495049C7F2C17D8049C641C04947F
:10029000049C7F2C11D8049C641C0494049C7F2C27
:1002A0000BD8049C641C0494049C7F2C05D8049CEB
:1002B000641C0494049C802CE7D304680325AC439D
:1002C000046000240494049EF6087C2E19D840F2A1
:1002D000E836049F7F1C0497049FB74211D2049F05
:1002E0007F1C0497049FB7420BD2049F7F1C049786
:1002F000049FB74205D2049F7F1C0497049FB74216
:10030000E7D31E68694F37401F600668684F374063
:1003100007600668674F37400760866A0F27BE434D
:100320008662C66A40F20317BE43C6620E04C76AFD
:10033000B743C762CE07C76AB743C762066B8E432F
:10034000066344601E680E431E605B4E1F68BF0755
:100350000CD41F68BF0709D41F68BF0706D41F68E5
:10036000BF0703D4371F002E3E46EFD11E68B607E5
:1003700000D4FEE700950194504F3D6802263543B6
:100380000524A5433D600468902525430560046865
:100390000460046804600468494D254005600468F1
:1003A000484D254305600C061D6825431D604F061A
:1003B0001C683C4208D11C683C4205D11C683C4288
:1003C00002D11C683C42F3D003680493049B009C58
:1003D000A3430493049B33430493049B0360019D54
:1003E00003681340082B0BD003681340082B07D079
:1003F00003681340082B03D003681340082BEFD188
:100400000395039A7F2A17D8039A521C0392039AE2
:100410007F2A11D8039A521C0392039A7F2A0BD881
:10042000039A521C0392039A7F2A05D8039A521CFE
:100430000392039A802AE7D302680292F022029B79
:10044000934302938023029C1C430294029B03600B
:100450000395039B7F2B17D8039B5B1C0393039B84
:100460007F2B11D8039B5B1C0393039B7F2B0BD823
:10047000039B5B1C0393039B7F2B05D8039B5B1C97
:100480000393039B802BE7D303680293029B934360
:100490000293029A0292029A0260C806002105B0F5
:1004A000F0BC00F0DDBEC04604100240FFFFF2FECB
:1004B0000C00FF08FFFFC277FC0400000020024090
:1004C000FFFFC2F700000408B0B563A001F0B2F965
:1004D000E84C0121204601F09CF8002800D1B9E049
:1004E0000121204601F092F8F5490868401C086097
:1004F000F2480278012A0AD10A684368D21AC3680E
:100500009A4204D30278022A01D0022202702822E1
:10051000835C012B0AD10B68C46A1B1B446BA3428A
:1005200004D3835C022B01D0022383545022835CCA
:10053000012B0AD10B68446D1B1BC46DA34204D36D
:10054000835C022B01D0022383547822835C012B2D
:100550000BD18423C3580C68C56F641B9C4204D321
:10056000835C022B01D002238354A022835C012BE5
:100570000CD1AC23C3580C68A4254559641B9C427C
:1005800004D3835C022B01D002238354C822835CF2
:10059000012B0CD1D423C3580C68CC254559641BBE
:1005A0009C4204D3835C022B01D002238354F022AB
:1005B000835C012B0CD1FC23C3580C68F4254559EE
:1005C000641B9C4204D3835C022B01D0022383541E
:1005D00040F21812825C012A10D140F22412825893
:1005E0000B6840F21C1404591B1B934206D340F2C3
:1005F0001812835C022B01D00223835440F2401274
:10060000825C012A10D140F24C1282580B6840F2F1
:10061000441404591B1B934206D340F24012835CDE
:10062000022B01D00223835440F26812825C012A1B
:1006300010D140F274128258096840F26C13C3580A
:10064000C91A914206D340F26811425C022A01D0D5
:1006500002224254B0BDC04631000000B0B5134D77
:100660000121284600F0D5FFF0B10124284621469B
:1006700000F0CCFF0E48017849B90E490A6812090A
:10068000182A03D80868401C086000E004700A4873
:100690000178012908D109490A88521C0A80098871
:1006A000282100220A600270B0BDC046004401400B
:1006B0005504002058040020B10000200C00002048
:1006C000B0B5174C174D2046294601F05BF830B302
:1006D0002046294601F042F8022000F05BFB40F280
:1006E00000210A1A104B5A5280B2884204D00F4897
:1006F000016809B10C4888470224204600F090FAAE
:10070000204640F2002100F03FFB0749204600F060
:100710001DFB2046B0BC02BC8E4600F089BAB0BDBD
:100720000038014004000407480200204C04002067
:1007300020480021017020480170204801700148C4
:100740000170704744020020F0B583B0194D29783C
:1007500069B3194800780F220292002201920246E2
:1007600004E0144D297802460B0620D0491E29705A
:10077000124E33785C1C029F3C403470A2B1D90009
:100780000F4A545C51184D6800260E4F03E03F1D80
:10079000761C8642E5D23A68002AF8D020462946DF
:1007A000904705480078F2E7019A0B06DED103B0C6
:1007B000F0BDC04645020020B000002046020020E7
:1007C000300000201000002070470000B0B584B059
:1007D0009048002505702821455450214554782122
:1007E0004554A0214554C8214554F021455440F2B8
:1007F0001811455440F24011455440214554682198
:10080000455490214554B8214554E021455440F2C7
:100810000811455440F23011455440F258114554E6
:1008200040F268114554057640F28011455440F27B
:10083000106000F0F5FD0F4C204600F03FFE0E4822
:1008400002904720009001956946204600F080FE06
:1008500001252046294600F0D9FE2046294600F011
:10086000D1FE204600F064FE1420022100F0CEFCF0
:1008700004B0B0BD00400140E7030000F0B581B016
:100880000A24644D0026012703E028702835641EE1
:1008900012D028780228F9D1296909B168698847F6
:1008A00028780028F2D0287A01283046EDD15A481D
:1008B000006868603846E8E701B0F0BDB400002089
:1008C00050040020F0B58FB002930124002800D11D
:1008D0009DE0002900D19AE0149DEDB116460190EB
:1008E0000C462846FFF72BFC0F2801D904248EE084
:1008F000287800282146019832460DD0284600F07D
:1009000051FA3246214606460198002E04D4282486
:100910007443404F00263E5501953E4D2C780023F0
:100920001F4684B328242C5DE4B150242C5DDCB137
:1009300078242C5DD4B1A0242C5DCCB1C8242C5DCE
:10094000C4B1F0242C5DBCB140F218142C5DACB1E4
:1009500040F240142C5D9CB140F268142C5D8CB1C7
:10096000022454E001270EE002270CE003270AE0EE
:10097000042708E0052706E0062704E0072702E031
:10098000082700E009270EAC01262670224C2468B7
:100990000C9428247C430E9E2E552E190DACA7785E
:1009A000F7706478B4700D9C74700BAC22700C9A64
:1009B00072600B9A32720AAA9478F4725278B27208
:1009C0000A9A727209900998F0600891089830614B
:1009D00002980790079870610693069870620593D5
:1009E0000598306204930498F06103930398B06112
:1009F00030461830019941B10A7832B10F22FFF721
:100A000091FB27200024345401E000240470204688
:100A10000FB0F0BDB400002050040020F0B58BB042
:100A20000D46044640F20050113000F0F9FC6048D9
:100A3000844271D05F48844200D087E05F4800F074
:100A4000EFFC0920C60602210291039501253046DC
:100A50002A4640F2006300F0CBFA002730463946C0
:100A60002A4640F2006300F049FB3046294640F236
:100A7000006200F03DFA1B20294600F0C7FB40F25F
:100A8000005000F0CDFC284600F0E2F804AE3046FD
:100A900000F070F940F200103083B57601970697A8
:100AA0004748001D049043F20000099007970597FE
:100AB00008972846314600F0E1F8284600F0C0F8D3
:100AC000284600F04BF92846029F394600F00EF9FF
:100AD0000A202946039D00F099FB384600F0B8F83B
:100AE0000199B17640F2001030833648069040F20A
:100AF0000020089007913248049043F200000990CA
:100B000005913846314600F0B9F8384600F098F8BB
:100B1000384600F08DF819E0274800F081FC0920E4
:100B20000395C506022101260C27284632463B467E
:100B300000F05EFA0021284632463B4600F0DEFA1D
:100B40002846039D31463A4600F0D2F9204600F08F
:100B5000A9FD2046294600F077FD002520462946BC
:100B600000F04BFE2046294600F032FE2046294682
:100B700000F019FE2046294600F0DAFD20462946FD
:100B800000F0C9FD0821204600F02FFE0425204674
:100B9000294600F015FE4021204600F09FFD20462A
:100BA00000F0ACFD2046294600F0CFFD0BB0F0BDB3
:100BB0000044004000380140110700000E0600000C
:100BC000243801404802002080B582B005A0009082
:100BD00007490122002340F2E830FFF773FE02B01C
:100BE00080BDC046666565645F646F670000000095
:100BF0003D15000809490860086830B1086820B14F
:100C0000086810B108680028F6D1704703480168E9
:100C100011B10168491E01607047C04608000020FC
:100C20001421414352480A5801239A430A507047FD
:100C3000142141434E480A58012313430B50704777
:100C4000142141434A480A5820239A430A507047C6
:100C500010B5142242432D49521853680124A3436E
:100C60005360002353609360D360136180000F22B0
:100C7000824008681043086010BDC046B0B5142219
:100C800042433B4813580124A343135013180C68E4
:100C90009C608C68DC600C8A5C60135843F60074BE
:100CA000A3434C681C43CB6823434C691C4314503A
:100CB0000B7E5B1E5C425C41A30114584025AC4393
:100CC000E31813504B7E5B1E5C425C41E3011458F9
:100CD0008025AC43E3181350897E4B1E99410901CE
:100CE00013581024A34359181150B0BD1422424385
:100CF0001F4813580B4313507047C0468000814073
:100D0000024802680A4302607047C046040002407D
:100D100010B50022082915D801238B4040F2141485
:100D200023420FD082000C469440074A13682340A8
:100D30005C1EA34114244443A01882680A40501E3C
:100D400082411A40104610BD000002401422424366
:100D5000014811507047C04614000240142141431D
:100D600003480A5844F200039A430A507047C046A9
:100D700008000240002181760183016041608160AA
:100D8000C1600161416170471422424388B2044945
:100D90005050704714214143014808587047C046DD
:100DA0000C000240F0B581B00021CD4300286CD08A
:100DB00004460078002868D0434E307848B1304669
:100DC00018300F462146FFF7C1F901463846002981
:100DD0005CD02820305C30B1304640302146FFF7EF
:100DE000B5F9002854D05020305C30B1304668301E
:100DF0002146FFF7ABF900284DD07820305C30B1A8
:100E0000304690302146FFF7A1F9002846D0A020B7
:100E1000305C30B13046B8302146FFF797F90028F2
:100E20003FD0C820305C28B13046E0302146FFF783
:100E30008DF9C8B3F020305C30B140F208103018A2
:100E40002146FFF783F990B340F21810305C30B1BF
:100E500040F2301030182146FFF778F950B340F2D5
:100E60004010305C30B140F2581030182146FFF786
:100E70006DF910B340F26810305C30B140F2801070
:100E800030182146FFF762F9D0B1284601B0F0BD15
:100E9000012001B0F0BD022001B0F0BD032001B07F
:100EA000F0BD042001B0F0BD052001B0F0BD06206A
:100EB00001B0F0BD072001B0F0BD082001B0F0BDC9
:100EC000092001B0F0BDC046B400002070B5044652
:100ED000C1B2CD4D284600F0DFFB044E2846314616
:100EE00000F011FC0028F9D0204670BD0707000073
:100EF000F0B588B00F23DD43036AD40701D02B403F
:100F00000B430395F024E6430F019407029705462F
:100F100001D533403B432F4F08025407069001D5BB
:100F20003B4003432C4F08031407079501D53B4072
:100F300003430F04D4060196009702D5274C2340A3
:100F40003B43274E0F05940601D533403B43254DC7
:100F50000E065406049601D52B4033430597224DC7
:100F60000F07140601D52B40DB19079D6C6A2B6215
:100F7000D30502D5039B1C400C43069B154D9105E0
:100F800003D501990C4002990C43134E510501D52C
:100F90002C401C43124B144D110501D53440044321
:100FA000D10403D50D4804400098044305989104EA
:100FB00001D51C40044304980A4B510401D51C4040
:100FC0000443110401D52C40E4190798446208B089
:100FD000F0BDC046FFF0FFFFFF0FFFFFFFFFF0FF78
:100FE000FFFF0FFFFFFFFFF0FFFFFF0F8162704762
:100FF000F0B584B001930392029105680090C46833
:101000000026314603E010360831202E71D0019BB6
:10101000CB40DF0709D0039FB7400320B040844393
:101020003C43029FB74085433D4398070AD5B01C17
:10103000039F87400C22B24094433C43029F874069
:1010400095433D4358070AD5301D039A8240302707
:10105000B740BC431443029A8240BD43154318076E
:101060000AD5B01D039A8240C027B740BC43144341
:10107000029A8240BD431543D8060CD5304608304D
:10108000039A824040F20037B740BC431443029AAF
:101090008240BD43154398060CD530460A30039A6A
:1010A000824040F60047B740BC431443029A824056
:1010B000BD43154358060CD530460C30039A824088
:1010C00043F20007B740BC431443029A8240BD4339
:1010D0001543180697D530460E30039A82404CF2DD
:1010E0000003B3409C431443029A82409D4315433E
:1010F00089E700980560C46004B0F0BDF0B581B028
:10110000012902D14168194301E0416899434160D6
:10111000009081680024204603E010340830202C21
:1011200051D01E46C640F70705D01746A7400325F5
:10113000A540A9433943B50706D5A51C1746AF40BE
:101140000C25A540A9433943750706D5251D17462B
:10115000AF403025A540A9433943350706D5A51D25
:101160001746AF40C025A540A9433943F50608D529
:10117000254608351746AF4040F20035A540A94343
:101180003943B50608D525460A351746AF4040F61F
:101190000045A540A9433943750608D525460C35B9
:1011A0001746AF4043F20005A540A9433943350631
:1011B000B3D525460E351646AE404CF20005A54087
:1011C000A9433143A9E70098816001B0F0BD00F068
:1011D0002BBA000000F04CF940F2E830FFF70AFDAE
:1011E000E12041020848FFF719FCFFF7A1FAFFF7D9
:1011F000EDFAFFF7E9FCFFF7E7FAFFF7E8FFFFF783
:101200003DFBFFF7A1FAFAE70044004010B50028C3
:1012100005D40322034693430F4A9A1803E00C2295
:1012200002400C4BD2188307DB0E8907090E994048
:10123000FF249C401368A3430B431360002808D489
:10124000C1081C220A401F21014001208840034997
:10125000505010BD14ED00E000E400E000E100E0BB
:10126000034A0A40024303480260BFF34F8F7047AE
:1012700080FFFF1F08ED00E070B50C4800F0D0F8CB
:101280000B4C01210025402620462A463346FFF715
:10129000AFFE0322204629463346FFF72FFF2046A4
:1012A000314670BC04BC9646FFF7A0BE1205000094
:1012B00000040048F0B501464F4A10680C24044071
:1012C0004E4B082C1C4618D110688002000F0F28C6
:1012D00001D0841C00E0102415682D0101D51130C7
:1012E00004461068C00301D4454805E0906A0F2504
:1012F0000540681CB3FBF0F0444310680006000F83
:1013000040A5285C1668176805293ED82546C540C3
:10131000B804400F3F4B1B5C2846D8408B0001A708
:10132000FB189F4600F00AB800F012B800F012B89F
:1013300000F02CB800F004B800F013B82046F0BD5F
:10134000D16AC90523D4D06AC00335D53348F0BD6E
:101350002846F0BD7005400F2E49085CC540284660
:10136000F0BDD16A890711D0D06A03210840012855
:1013700020460BD0D36A0B4048F20000022B05D068
:10138000D06A084003281D4800D00020F0BD136833
:10139000D16A1A04920F930001A4E3189F46C04635
:1013A00000F006B800F014B800F008B800F00CB86F
:1013B000002919D44008F0BD1748F0BD00290BD40E
:1013C0000621B0FBF1F0F0BD002909D4C008F0BD42
:1013D00000290DD48008F0BD0720B5FBF0F0F0BD6A
:1013E0000920B5FBF0F0F0BD0320B5FBF0F0F0BD37
:1013F0000520B5FBF0F0F0BD0410024000127A00A9
:1014000000093D000000000000000000010203048C
:101410000607080954180008809FD500003FAB015B
:101420001F21014001228A4080090C49435813437F
:10143000435070471F21014001228A40800907491B
:1014400043589343435070471F21014001228A4073
:10145000800902494358134343507047001002402B
:10146000024909680840411E884170471800014040
:1014700010B50E48006840F2E831B0FBF1F0411EB3
:10148000080E00D0FEE70A480A4A51600A490B6874
:1014900003400324A4071B190B6000239360072358
:1014A00013600A6802400A6010BDC04604000020B4
:1014B000FFFFFF0010E000E020ED00E010B5184C49
:1014C000184988420ADD1849884212DC4549884299
:1014D0001DD04749884216D1641D18E04249884210
:1014E0000FD01249884211D0444988420BD1FD34B3
:1014F0000DE04149884207D03E49884203D1E41DAE
:1015000005E0F63403E010BDA41D00E0F9342046E8
:10151000FFF79AFF204610BC02BC8E46FFF78ABF39
:101520000B030000FF2B0140FF430140001000406F
:10153000016801220A4302607047000001A000F028
:1015400079B9C0466665656420646F670000000075
:1015500010B50A888262234A904202D0224B9842F8
:101560000BD103687024A34303604B8804681C43B9
:1015700004608B8804681C4304608B68C3621B4B47
:10158000984208DC184B98420ED01C4B98420BD066
:10159000904209D020E0164A904205D0154A904268
:1015A00002D0154A904217D1026840F200339A43A4
:1015B0000260CA88036813430360114A82180A2331
:1015C000DA41072A08D801239340E122134203D0CD
:1015D00030220243097B1160416901220A434261C2
:1015E00010BDC046002C014000040040FF3F0140F8
:1015F00000400140004801400044014000200040FC
:1016000000D4FEBFC2680A43C2607047C94301618B
:101610007047C2680A40531E9A4100690840411E43
:10162000884110407047000080B5FFF725FE05484F
:1016300040210160E1204102254880BC04BC96465F
:10164000FFF7ECB918040048B0B50D460446204831
:10165000844204D01F48844205D1022000E00520C6
:10166000FFF728FE00E000202168090406D469087D
:101670004018B0FBF5F080B2E060B0BD69084000F2
:101680004018B0FBF5F0034901400007400F401837
:10169000E060B0BDF0FF0000014A0A40826270477E
:1016A000FF01000010B50A49884204D00949884268
:1016B0000BD1094C00E0054C2046FFF7C5FE204643
:1016C00010BC02BC8E46FFF7B5BE10BD0E03000075
:1016D00000380140004400401104000082684023AB
:1016E0009A43826082680A438260704782688023DE
:1016F0009A43826082680A438260704701680122CF
:101700000A43026070471F220A4089090958D140E4
:10171000012008407047026801239A4302608268F2
:1017200040F200239A43826082680A4382607047D5
:10173000026801239A430260826840F200139A43D0
:10174000826082680A43826070471F220A40012338
:10175000934089090A581A430A507047084A91422F
:1017600006D1D021425848F200039A4342507047B4
:10177000C902C90E01228A40016A11430162704701
:1017800009340F341F220A40012393400A04920DAA
:1017900012581A40531E9A418B0D1858C902C90E8F
:1017A000C84010407047026801239A4302600268F3
:1017B00040F200639A43026002680A430260704785
:1017C000026804239A43026002680A430260704779
:1017D000026801239A430260426843F200039A437D
:1017E000426042680A4342607047026808239A4395
:1017F000026002680A4302607047026801239A434C
:101800000260026841F200039A43026002680A43E0
:101810000260704702E008C8121F08C1002AFAD10E
:1018200070477047002001E001C1121F002AFBD160
:101830007047000010B5044601E0FFF747FB207831
:10184000641C03490028F8D10A20FFF73FFB10BDB4
:1018500000000020000000000102030480180008BE
:101860000000002008000000141800088818000874
:1018700008000020580C0000241800080000000098
:081880000000000000A24A0470
:04000005080000CD22
:00000001FF
