:020000040800F2
:10000000880C0020E1000008970200089502000813
:1000100000000000000000000000000000000000E0
:10002000000000000000000000000000A90200081D
:100030000000000000000000A7020008AB0200085A
:100040000D0100080D0100080D0100080D01000858
:100050000D0100080D0100080D0100086D020008E7
:10006000000000000D0100083D0200080D0100081D
:100070000D0100080D0100080D010008000000003E
:100080000D0100080D010008000000000D0100082E
:100090000D0600080D0100080D0100080D01000803
:1000A0000D0100080D0100080D0100089D07000862
:1000B0000D0100080000000000000000000000002A
:1000C0000D010008000000000D01000803488546EE
:1000D00000F07AF800480047C9150008880C002095
:1000E0000B4802680B480240120C92020A4940F287
:1000F000000001C1121F002AFBD1084880470848B0
:100100000047FEE7FEE7FEE7FEE7FEE7FEE700004A
:10011000E0F7FF1F0000FFFF000000202D03000894
:10012000CD00000810B5044605E00B780370401CB4
:10013000002B00D0491C521EF7D2204610BD421C95
:100140000178401C0029FBD1801A704710B50022AD
:1001500000E0521C835C8C5CA34201D1002BF8D1DF
:10016000D8B2E1B2401A10BDF0B51FB40646002067
:1001700082B005464024019100901BE0019922467F
:100180000F46304600F048F8049A059B801A9941C2
:1001900010D310461946224600F02EF8361A8F4129
:1001A0000197224601200021009F00F025F8381811
:1001B0004D4100902046641E0028DFDC019B009822
:1001C0002946324607B0F0BD1CB5094800900948E1
:1001D000019005460126009C05E0E36807CC334307
:1001E0000C3C98471034AC42F7D3FFF773FF000084
:1001F000F02400081025000810B5202A04DB014671
:10020000203A9140002010BD914020239C1A0346C3
:10021000E3401943904010BD10B5202A04DB084686
:10022000203AD040002110BD0B46D340D0402024BE
:10023000A21A91400843194610BD000010B50120D4
:10024000022100F0BDFE70B101240221204600F021
:10025000ADFE0548002101F035FE204610BC02BC71
:100260008E4600F035BE10BD0038014080B540F626
:10027000000000F025FF48B140F6000000F01CFF30
:10028000034880BC02BC8E4602F01AB980BDC0464D
:10029000EE240008FEE740F2001001F0F3FB012815
:1002A00000D1FEE7FEE7FEE7FEE700F007BE000034
:1002B00010B5164801680C230B40154A082B06D1CF
:1002C000016889020B0F0F2B03D0991C02E0114625
:1002D00011E010210468240101D511331946036887
:1002E000DB0301D40B4A05E0836A0F241C40631C26
:1002F000B2FBF3F25143084A116000680006000F98
:1003000006A3185CC140116010BDC0460410024035
:1003100000127A0000093D000400002000000000E7
:10032000000000000102030406070809F0B485B0CC
:10033000AE48031F1A6801210A431A601A6892071F
:1003400008D41A68920705D41A68920702D41A686A
:100350009207F3D504680C221440082C4FD104688E
:100360000394F024039DA54303958025039E2E430B
:100370000396039D056000250495049E7F2E17D8E3
:10038000049E761C0496049E7F2E11D8049E761C33
:100390000496049E7F2E0BD8049E761C0496049E21
:1003A0007F2E05D8049E761C0496049E802EE7D3EB
:1003B00006680396039EA64303969024039E264355
:1003C0000396039C04600495049C7F2C17D8049C1E
:1003D000641C0494049C7F2C11D8049C641C049419
:1003E000049C7F2C0BD8049C641C0494049C7F2CDC
:1003F00005D8049C641C0494049C802CE7D30468F6
:100400000325AC43046000240494049EF6087C2E6B
:1004100019D840F2E836049F7F1C0497049FB74226
:1004200011D2049F7F1C0497049FB7420BD2049FF4
:100430007F1C0497049FB74205D2049F7F1C04973A
:10044000049FB742E7D31E68694F37401F600668B4
:10045000684F374007600668674F37400760866A15
:100460000F27BE438662C66A40F20317BE43C662C8
:100470000E04C76AB743C762CE07C76AB743C762ED
:10048000066B8E43066344601E680E431E605B4E1F
:100490001F68BF070CD41F68BF0709D41F68BF07B8
:1004A00006D41F68BF0703D4371F002E3E46EFD186
:1004B0001E68B60700D4FEE700950194504F3D68D2
:1004C000022635430524A5433D6004689025254355
:1004D000056004680460046804600468494D2540B0
:1004E00005600468484D254305600C061D682543DA
:1004F0001D604F061C683C4208D11C683C4205D177
:100500001C683C4202D11C683C42F3D0036804934F
:10051000049B009CA3430493049B33430493049BD8
:100520000360019D03681340082B0BD00368134040
:10053000082B07D003681340082B03D0036813402F
:10054000082BEFD10395039A7F2A17D8039A521CE0
:100550000392039A7F2A11D8039A521C0392039A9A
:100560007F2A0BD8039A521C0392039A7F2A05D83C
:10057000039A521C0392039A802AE7D302680292DC
:10058000F022029B934302938023029C1C4302941B
:10059000029B03600395039B7F2B17D8039B5B1C77
:1005A0000393039B7F2B11D8039B5B1C0393039B3B
:1005B0007F2B0BD8039B5B1C0393039B7F2B05D8DE
:1005C000039B5B1C0393039B802BE7D3036802937D
:1005D000029B93430293029A0292029A0260C80617
:1005E000002105B0F0BC01F037B8C046041002404D
:1005F000FFFFF2FE0C00FF08FFFFC277FC040000C3
:1006000000200240FFFFC2F700000408B0B5614CB3
:100610000121204601F007FB002800D1B9E00121AB
:10062000204601F0FDFA5C490868401C0860F54866
:100630000278012A0AD10A684368D21AC3689A422A
:1006400004D30278022A01D0022202702822835C9D
:10065000012B0AD10B68C46A1B1B446BA34204D351
:10066000835C022B01D0022383545022835C012B34
:100670000AD10B68446D1B1BC46DA34204D3835C79
:10068000022B01D0022383547822835C012B0BD1EF
:100690008423C3580C68C56F641B9C4204D3835CDD
:1006A000022B01D002238354A022835C012B0CD1A6
:1006B000AC23C3580C68A4254559641B9C4204D341
:1006C000835C022B01D002238354C822835C012B5C
:1006D0000CD1D423C3580C68CC254559641B9C42CB
:1006E00004D3835C022B01D002238354F022835C69
:1006F000012B0CD1FC23C3580C68F4254559641B0D
:100700009C4204D3835C022B01D00223835440F229
:100710001812825C012A10D140F2241282580B6810
:1007200040F21C1404591B1B934206D340F21812CA
:10073000835C022B01D00223835440F24012825C7E
:10074000012A10D140F24C1282580B6840F2441436
:1007500004591B1B934206D340F24012835C022BC8
:1007600001D00223835440F26812825C012A10D126
:1007700040F274128258096840F26C13C358C91AC7
:10078000914206D340F26811425C022A01D0022253
:100790004254B0BD004001407C040020B0B5264C5E
:1007A000264D2046294601F0E1FB18B32046294694
:1007B00001F0C8FB022000F045FC40F200210A1ABB
:1007C0001F4B5A5280B2884204D01E48016809B1BA
:1007D0001B4888470225284600F07AFB284640F24D
:1007E000002100F029FC1649284600F007FC2846A5
:1007F00000F076FB1449204601F0B8FBD8B113494C
:10080000204601F06CFB12A001F05AFE0920C00640
:1008100040F2001100F0E2FD0E48002101700425B5
:100820002046294601F0C0FB20462946B0BC04BC46
:10083000964601F07EBBB0BD0038014004000407BD
:100840007402002078040020060006070607000056
:1008500031000000800400202B4800210170334843
:1008600001701D480170294801707047F0B583B0D0
:10087000254D297869B32D4800780F220292002275
:100880000192024604E0204D297802460B0620D052
:10089000491E2970104E33785C1C029F3C40347016
:1008A000A2B1D9001A4A545C51184D680026204F55
:1008B00003E03F1D761C8642E5D23A68002AF8D054
:1008C00020462946904719480078F2E7019A0B061E
:1008D000DED103B0F0BDC04672020020F0B588B989
:1008E000094802780F2A0DD8084B1C78E500084EFD
:1008F00000277755521C027070194160601C0F214F
:1009000001401970F0BDC046710200207002002045
:100910004C00002010B505490A78072A04D8930036
:10092000034CE050501C087010BDC046CC000020A5
:100930002C00002080B5054842F2805100F09CF95F
:10094000034880BC02BC8E4600F090B900380140DC
:10095000A90B000870B584B09148002606702821C4
:1009600046545021465478214654A0214654C8216B
:100970004654F021465440F21811465440F24011BA
:100980004654402146546821465490214654B8218B
:100990004654E021465440F20811465440F23011CA
:1009A000465440F25811465440F2681146540676B7
:1009B00040F28011465440F2106001F01DF8124CD4
:1009C000204601F08DF86D46284601F037F90F48B2
:1009D00002904720009001962046294601F0C2F877
:1009E00001252046294601F01BF92046294601F041
:1009F00013F9204601F0AEF81420294600F002FE5B
:100A000004B070BDD000002000400140E7030000AA
:100A1000F0B581B00A24624D0026012703E028705A
:100A20002835641E12D028780228F9D1296909B125
:100A30006869884728780028F2D0287A012830464B
:100A4000EDD15848006868603846E8E701B0F0BD6D
:100A5000F0B58FB002930124002800D19DE0002959
:100A600000D19AE0149DEDB1164601900C4628463F
:100A7000FFF765FB0F2801D904248EE028780028B1
:100A80002146019832460DD0284600F021FB32461F
:100A9000214606460198002E04D428247443404F72
:100AA00000263E5501953E4D2C7800231F4684B309
:100AB00028242C5DE4B150242C5DDCB178242C5D1D
:100AC000D4B1A0242C5DCCB1C8242C5DC4B1F024D9
:100AD0002C5DBCB140F218142C5DACB140F2401456
:100AE0002C5D9CB140F268142C5D8CB1022454E062
:100AF00001270EE002270CE003270AE0042708E0A4
:100B0000052706E0062704E0072702E0082700E0A3
:100B100009270EAC01262670224C24680C94282448
:100B20007C430E9E2E552E190DACA778F770647875
:100B3000B4700D9C74700BAC22700C9A72600B9A9E
:100B400032720AAA9478F4725278B2720A9A727265
:100B500009900998F0600891089830610298079010
:100B60000798706106930698706205930598306245
:100B700004930498F06103930398B06130461830F1
:100B8000019941B10A7832B10F22FFF7CBFA272041
:100B90000024345401E00024047020460FB0F0BD5E
:100BA000D00000207C040020F0B481B00178FB2943
:100BB00057D14178012954D104460D3403462E33D0
:100BC000294900220A604A608A60CA600A614A6153
:100BD0008A61CA612578667836027519A678360466
:100BE000E7783F06BE1975190D60A579E6793602DA
:100BF0007519267A3604677A3F06BE1975194D6055
:100C0000A57AE67A36027519267B3604677B3F069D
:100C1000BE1975198D60058C468C36047619657C75
:100C20000095277CA57BE47B0E61240264193D04BA
:100C3000009E360675192C19CC60848CC08C00047B
:100C40000019486118885C882404201888619888F5
:100C5000DB881B041818C861104601B0F0BCFFF710
:100C60003DBE01B0F0BC704708000020014908609B
:100C70007047C04678040020F0B58BB00E4604469D
:100C80006E4D284600F0B8FE6D48844200D188E0E1
:100C90006C48844200D09EE0284600F0ADFE09205A
:100CA0000296C6060127002203923046394640F2DA
:100CB000001300F097FB03223046039940F2001323
:100CC00000F016FC304640F2001100F087FB5F4850
:100CD00000F092FE0221019130463A4640F2006354
:100CE00000F080FB304603993A4640F2006300F082
:100CF000FFFB3046394640F2006200F0F1FA1B205B
:100D0000394600F07FFC113DA8B200F075FE384670
:100D100000F0F6F804AD284600F084F940F2001027
:100D20002883AF76039906914948001D049043F249
:100D3000000009900791059108913846294600F076
:100D4000F5F8384600F0D4F8384600F05FF9384638
:100D5000019E314600F022F90A20394600F052FC8B
:100D60003746304600F0CCF80399A97640F20010DF
:100D700028833848069040F20020089007913448B4
:100D8000049043F200000990029E059138462946DE
:100D900000F0CCF8384600F0ABF8384600F0A0F888
:100DA00019E0294800F028FE0920C5060221029614
:100DB00001260C27284632463B4600F013FB002153
:100DC000284632463B4600F093FB28463146029EB9
:100DD0003A4600F085FA204601F050F820463146A8
:100DE00001F01EF800252046294601F0FAF82046B9
:100DF000294601F0E1F82046294601F0C8F82046CE
:100E0000294601F089F82046294601F078F80821A2
:100E1000204601F0DEF804252046294601F0C4F8FA
:100E20004021204601F046F8204601F053F82046C4
:100E3000294601F07EF80BB0F0BDC0461105000058
:100E40000044004000380140110700000E06000079
:100E5000243801407402002080B582B040F60010B2
:100E600000F028FD40F6001000F02EFD0848042197
:100E700000F0D6F900F02CFA06A0009008490122F3
:100E8000002340F2E830FFF7E3FD02B080BDC0462A
:100E9000350C0000666565645F646F6700000000E4
:100EA0005F1B000809490860086830B1086820B174
:100EB000086810B108680028F6D170470348016837
:100EC00011B10168491E01607047C046280000202A
:100ED0001421414352480A5801239A430A5070474B
:100EE000142141434E480A58012313430B507047C5
:100EF000142141434A480A5820239A430A50704714
:100F000010B5142242432D49521853680124A343BB
:100F10005360002353609360D360136180000F22FD
:100F2000824008681043086010BDC046B0B5142266
:100F300042433B4813580124A343135013180C6831
:100F40009C608C68DC600C8A5C60135843F600740B
:100F5000A3434C681C43CB6823434C691C43145087
:100F60000B7E5B1E5C425C41A30114584025AC43E0
:100F7000E31813504B7E5B1E5C425C41E301145846
:100F80008025AC43E3181350897E4B1E994109011B
:100F900013581024A34359181150B0BD14224243D2
:100FA0001F4813580B4313507047C04680008140C0
:100FB000024802680A4302607047C04604000240CB
:100FC00010B50022082915D801238B4040F21414D3
:100FD00023420FD082000C469440074A13682340F6
:100FE0005C1EA34114244443A01882680A40501E8A
:100FF00082411A40104610BD0000024014224243B4
:10100000014811507047C04614000240142141436A
:1010100003480A5844F200039A430A507047C046F6
:1010200008000240002181760183016041608160F7
:10103000C1600161416170471422424388B2044992
:101040005050704714214143014808587047C0462A
:101050000C00024070B5174B1C46083C25688543C0
:1010600025601D1F2E6886432E601E6886431E6005
:101070005E6886435E6011B1012903D12C46216868
:1010800001432160022A0DD0C143012A06D07AB95A
:101090001A6802431A605A680A4008E01A680A404F
:1010A0001A6002E01968014319605A6802435A60E5
:1010B00070BDC04608040140044908607047C0463E
:1010C000024909680840411E8841704714040140E4
:1010D000F0B581B00021CD4300286CD004460078E3
:1010E000002868D0434E307848B1304618300F465B
:1010F0002146FFF72BF80146384600295CD028200E
:10110000305C30B1304640302146FFF71FF80028F0
:1011100054D05020305C30B1304668302146FFF763
:1011200015F800284DD07820305C30B13046903032
:101130002146FFF70BF8002846D0A020305C30B1E4
:101140003046B8302146FFF701F800283FD0C820CC
:10115000305C28B13046E0302146FEF7F7FFC8B3D7
:10116000F020305C30B140F2081030182146FEF714
:10117000EDFF90B340F21810305C30B140F2301007
:1011800030182146FEF7E2FF50B340F24010305CC9
:1011900030B140F2581030182146FEF7D7FF10B397
:1011A00040F26810305C30B140F2801030182146B7
:1011B000FEF7CCFFD0B1284601B0F0BD012001B050
:1011C000F0BD022001B0F0BD032001B0F0BD04204D
:1011D00001B0F0BD052001B0F0BD062001B0F0BDAA
:1011E000072001B0F0BD082001B0F0BD092001B01A
:1011F000F0BDC046D000002070B50446C1B2064D17
:10120000284600F035FE054E2846314600F06FFEB8
:101210000028F9D0204670BD0044004007070000B8
:10122000F0B582B00246234F3C460C3C2B48206070
:1012300021482060384608380160204E01213046A0
:101240003D680D400DD03D680D400AD03D680D4011
:1012500038B135B13D680D40431C02D0001D002D52
:10126000EED1002025BB01900094154B1A40384662
:101270003B1F1A6002220368134011D00446036822
:1012800013400DD0236813405F0856B14BB103687B
:1012900013405F08741C04D0361D002BEBD100E016
:1012A0005F082F43019803D10848009A1060084650
:1012B00002B0F0BD0C300040555500000400F0FFB6
:1012C000FF0F00000448014901607047AAAA00000E
:1012D000014802490160704700300040CCCC00005A
:1012E000F0B588B00F23DD43036AD40701D02B404B
:1012F0000B430395F024E6430F019407029705463C
:1013000001D533403B432F4F08025407069001D5C7
:101310003B4003432C4F08031407079501D53B407E
:1013200003430F04D4060196009702D5274C2340AF
:101330003B43274E0F05940601D533403B43254DD3
:101340000E065406049601D52B4033430597224DD3
:101350000F07140601D52B40DB19079D6C6A2B6221
:10136000D30502D5039B1C400C43069B154D9105EC
:1013700003D501990C4002990C43134E510501D538
:101380002C401C43124B144D110501D5344004432D
:10139000D10403D50D4804400098044305989104F6
:1013A00001D51C40044304980A4B510401D51C404C
:1013B0000443110401D52C40E4190798446208B095
:1013C000F0BDC046FFF0FFFFFF0FFFFFFFFFF0FF84
:1013D000FFFF0FFFFFFFFFF0FFFFFF0F816270476E
:1013E00081617047F0B584B0019303920291056862
:1013F0000090C4680026314603E010360831202EE4
:1014000071D0019BCB40DF0709D0039FB740032079
:10141000B04084433C43029FB74085433D43980717
:101420000AD5B01C039F87400C22B24094433C4332
:10143000029F874095433D4358070AD5301D039AC4
:1014400082403027B740BC431443029A8240BD43D8
:10145000154318070AD5B01D039A8240C027B7402C
:10146000BC431443029A8240BD431543D8060CD5B1
:1014700030460830039A824040F20037B740BC4300
:101480001443029A8240BD43154398060CD530465A
:101490000A30039A824040F60047B740BC431443E9
:1014A000029A8240BD43154358060CD530460C3095
:1014B000039A824043F20007B740BC431443029AA8
:1014C0008240BD431543180697D530460E30039A27
:1014D00082404CF20003B3409C431443029A824082
:1014E0009D43154389E700980560C46004B0F0BDD2
:1014F000F0B581B0012902D14168194301E041688A
:1015000099434160009081680024204603E0103434
:101510000830202C51D01E46C640F70705D017468C
:10152000A7400325A540A9433943B50706D5A51C07
:101530001746AF400C25A540A9433943750706D58A
:10154000251D1746AF403025A540A943394335072F
:1015500006D5A51D1746AF40C025A540A943394370
:10156000F50608D5254608351746AF4040F2003548
:10157000A540A9433943B50608D525460A3517467F
:10158000AF4040F60045A540A9433943750608D54C
:1015900025460C351746AF4043F20005A540A94348
:1015A00039433506B3D525460E351646AE404CF2C6
:1015B0000005A540A9433143A9E70098816001B027
:1015C000F0BD00F045BB000000F064FAFEF770FECD
:1015D00040F2E830FFF766FCE12041020848FFF7DF
:1015E0004BFBFFF739F9FFF7B5F9FFF735FCFFF7CC
:1015F000A1F9FFF7E6FFFFF70BFAFFF737F9FAE774
:101600000044004010B5002805D40322034693434C
:101610000F4A9A1803E00C2202400C4BD2188307A1
:10162000DB0E8907090E9940FF249C401368A343F1
:101630000B431360002808D4C1081C220A401F2154
:101640000140012088400349505010BD14ED00E0D6
:1016500000E400E000E100E0034A0A4002430348DE
:101660000260BFF34F8F704780FFFF1F08ED00E05F
:10167000F0B583B0324F384600F0BEF9314801244E
:1016800000264025214632462B46FFF7ABFE0322BB
:1016900001922C4831462B46FFF72AFF294829465C
:1016A000FFF79CFEEE37384600F0A6F925480746BE
:1016B0003146224640F60003FFF794FE0B212046F8
:1016C000029400F0B9F9022240F600003146FFF71B
:1016D000C1FC40F60000FFF7EFFC07203146FFF7A2
:1016E00091FF80253846214632462B46FFF77AFE89
:1016F00038463146019C22462B46FFF7F9FE384614
:101700002946FFF76BFE33253846029932462B46B1
:10171000FFF768FE3846314622462B46FFF7E8FEC3
:1017200038462946FFF75CFE38463146029A47F2B2
:10173000000303B0049CA646F0BC01B0FFF752BE04
:101740001205000000040048F0B501464F4A106839
:101750000C2404404E4B082C1C4618D11068800203
:10176000000F0F2801D0841C00E0102415682D0103
:1017700001D5113004461068C00301D4454805E086
:10178000906A0F250540681CB3FBF0F044431068D5
:101790000006000F40A5285C1668176805293ED88A
:1017A0002546C540B804400F3F4B1B5C2846D84037
:1017B0008B0001A7FB189F4600F00AB800F012B892
:1017C00000F012B800F02CB800F004B800F013B824
:1017D0002046F0BDD16AC90523D4D06AC00335D5EF
:1017E0003348F0BD2846F0BD7005400F2E49085C17
:1017F000C5402846F0BDD16A890711D0D06A0321BF
:101800000840012820460BD0D36A0B4048F2000064
:10181000022B05D0D06A084003281D4800D00020C4
:10182000F0BD1368D16A1A04920F930001A4E31863
:101830009F46C04600F006B800F014B800F008B8A3
:1018400000F00CB8002919D44008F0BD1748F0BDCD
:1018500000290BD40621B0FBF1F0F0BD002909D41A
:10186000C008F0BD00290DD48008F0BD0720B5FBED
:10187000F0F0F0BD0920B5FBF0F0F0BD0320B5FBA2
:10188000F0F0F0BD0520B5FBF0F0F0BD0410024013
:1018900000127A0000093D00000000000000000076
:1018A0000102030406070809E0240008809FD50010
:1018B000003FAB011F21014001228A4080095D49A0
:1018C000435813434350704701460020454A914214
:1018D0001ADCB9B310295BD0182900D080E00120B0
:1018E0004006414A53490B6803420AD10B68034240
:1018F00007D10B68034204D11AB1121F0B680342CF
:10190000F1D0086880016AE040F6000291422DD0D3
:1019100040F60012914250D040F6005291425FD101
:1019200031494448426B92070AD4426B920707D46C
:10193000426B920704D419B1091F426B9207F1D58B
:10194000406B4BE029493B48026892070CD402687F
:10195000920709D40268920706D40268920703D45A
:101960000A1F00291146EFD1006837E020493148AD
:10197000026A92070AD4026A920707D4026A92079F
:1019800004D419B1091F026A9207F1D5006A25E053
:1019900001204004174A27490B6803420AD10B680B
:1019A000034207D10B68034204D11AB1121F0B681E
:1019B0000342F1D00868800311E00B491D48426AD8
:1019C00092070AD4426A920707D4426A920704D463
:1019D00019B1091F426A9207F1D5406A8007C00F0A
:1019E0007047C046FF070000FCFF0F00FC0400002A
:1019F000FCFFFF03FCFF00001F21014001228A4081
:101A000080090C4943581343435070471F2101403C
:101A100001228A4080090749435893434350704745
:101A20001F21014001228A40800902494358134383
:101A30004350704700100240B0B58B08032B1ED8EE
:101A40008907090F88400F228A40D2430C499C0025
:101A500001A52C19A746C04600F00BB800F004B849
:101A600000F004B800F004B8091D02E0083100E0FD
:101A70000C310B6813400B600A6802430A60B0BD6A
:101A800008000140024909680840411E884170472A
:101A90001800014010B50E48006840F2E831B0FB74
:101AA000F1F0411E080E00D0FEE70A480A4A5160D4
:101AB0000A490B6803400324A4071B190B60002389
:101AC0009360072313600A6802400A6010BDC04695
:101AD00004000020FFFFFF0010E000E020ED00E028
:101AE00010B5184C184988420ADD1849884212DCA2
:101AF000414988421DD04349884216D1641D18E0EF
:101B00003E4988420FD01249884211D0404988424C
:101B10000BD1FD340DE03D49884207D03A49884257
:101B200003D1E41D05E0F63403E010BDA41D00E080
:101B3000F9342046FFF774FF204610BC02BC8E46E5
:101B4000FFF764BF0B030000FF2B0140FF43014080
:101B500000100040016801220A4302607047FFF74D
:101B6000B1BB000010B50A888262234A904202D0BD
:101B7000224B98420BD103687024A34303604B8827
:101B800004681C4304608B8804681C4304608B68F1
:101B9000C3621B4B984208DC184B98420ED01C4B7A
:101BA00098420BD0904209D020E0164A904205D0CE
:101BB000154A904202D0154A904217D1026840F26D
:101BC00000339A430260CA88036813430360114AD2
:101BD00082180A23DA41072A08D801239340E12218
:101BE000134203D030220243097B11604169012274
:101BF0000A43426110BDC046002C01400004004071
:101C0000FF3F0140004001400048014000440140C6
:101C10000020004000D4FEBFC2680A43C260704783
:101C2000C94301617047C2680A40531E9A41006966
:101C30000840411E884110407047000003490022BF
:101C400002730260426081607047C046FFFF00007F
:101C500080B582B00BA000F033FCFFF709FD0E4801
:101C6000402101600DA000900A200F4901220023AD
:101C7000FEF7EEFE0D4802B080BC02BC8E46FEF7B9
:101C800049BEC04674726961635F64726976657249
:101C90005F696E697400000018040048747269611D
:101CA000635F74696D657200751D0008B11C0008E2
:101CB00070B500B170BD0C46284E317A072930D876
:101CC000880002A2121820469746C04600F021B8AC
:101CD00000F00CB800F00FB800F010B800F008B831
:101CE00000F012B800F013B800F00BB8201D10E09F
:101CF000204610300DE0204608300AE020460C3027
:101D000007E020461C3004E02046143001E0204665
:101D1000183041780278C3788078F0723373727229
:101D2000B1720FA010A100F069F92178104D28467A
:101D300000F064F96178284600F060F9A17828463F
:101D400000F05CF9E178284600F058F90A2000F02C
:101D5000AFFB002070800120307070BD6002002059
:101D600025733A20000000006461746100000000E7
:101D7000E824000870B5264C2078264D01280ED1A5
:101D80006188481C608041B180B20A2807D30020D6
:101D9000608020708020A86101E08020A860E08839
:101DA000411CE180207989B289087D290AD300216C
:101DB000E180012181432171C00705D12946083105
:101DC000154804E0C007F9D12946183113A00122B3
:101DD0000A6002260E6010220A6020220A6000F0CB
:101DE0006FFBE089401CE08180B264280ED30020A4
:101DF000E0812868000B042101402868000B304076
:101E000040182968C904C90F4018207270BDC04627
:101E10006002002010040048EE2400083200000098
:101E2000B0B50D4604462048844204D01F48844281
:101E300005D1022000E00520FFF786FC00E000202D
:101E40002168090406D469084018B0FBF5F080B297
:101E5000E060B0BD690840004018B0FBF5F00349F0
:101E600001400007400F4018E060B0BDF0FF0000E7
:101E7000014A0A4082627047FF01000010B50A491A
:101E8000884204D0094988420BD1094C00E0054C36
:101E90002046FFF7C5FD204610BC02BC8E46FFF76A
:101EA000B5BD10BD0E0300000038014000440040E5
:101EB00011040000826840239A43826082680A43CA
:101EC00082607047826880239A43826082680A43F6
:101ED00082607047016801220A43026070471F2236
:101EE0000A4001219140026A0A43026270471F22A0
:101EF0000A4089090958D14001200840704702680A
:101F000001239A430260826840F200239A43826070
:101F100082680A4382607047026801239A43026024
:101F2000826840F200139A43826082680A438260AA
:101F300070471F220A400123934089090A581A4317
:101F40000A507047084A914206D1D021425848F2BF
:101F500000039A4342507047C902C90E01228A40C9
:101F6000016A11430162704709340F341F220A408D
:101F7000012393400A04920D12581A40531E9A41AD
:101F80008B0D1858C902C90EC8401040704702682E
:101F900001239A430260026840F200639A430260A0
:101FA00002680A4302607047026804239A43026091
:101FB00002680A4302607047026801239A43026084
:101FC000426843F200039A43426042680A43426017
:101FD0007047026808239A43026002680A4302605D
:101FE0007047026801239A430260026841F20003CD
:101FF0009A43026002680A43026070470FB410B54A
:1020000003A9044B044A029800F018F810BC08BC5D
:1020100004B01847F91100080000002002E008C8C9
:10202000121F08C1002AFAD170477047002001E052
:1020300001C1121F002AFBD170470000FFB591B00B
:102040000F460546002606E025280AD0149A139963
:1020500090476D1C761C28780028F5D1304615B0C5
:10206000F0BD002400940121F34A029400E00443EF
:102070006D1C2B780846203B98401042F7D12878F9
:102080002A280ED0022128780246303A092A15D88B
:10209000009A0A235A43303A80180C436D1C009072
:1020A000F1E701CF0090002805DA01204003044346
:1020B000009840420090022004436D1C28782E288E
:1020C00015D10420044368786D1C2A280AD101CF59
:1020D0006D1C02900BE002990A22514330394018DE
:1020E0006D1C02902878014630390929F3D92878E7
:1020F0006C2810D006DC4C281AD068280ED06A282C
:1021000017D104E0742813D07A2812D110E00120EE
:10211000400504430CE00121090501E00321090504
:102120000C436978814203D10120000524186D1CFD
:102130006D1C287803906E281ED00CDC632831D0EB
:1021400004DC00288AD0582811D1B2E064287BD062
:1021500069280CD178E073282DD004DC6F2870D06A
:10216000702804D1A7E075286CD078286BD0149A19
:1021700013999047761C62E06002400F022807D056
:1021800003280AD0042838680AD006603F1D56E0AC
:102190003868F11706604160F8E738680680F5E7AF
:1021A0000670F3E73878694608740020487404A87C
:1021B0000390012003E0386803900020C0433F1DD6
:1021C00061070FD5002101E00199491C029A019194
:1021D000914213DA8142F7DB019A0399895C002965
:1021E000F2D10BE0002101E00199491C01918142EB
:1021F000FADB019A0399895C0029F5D101990098CD
:10220000139A401A00902146149B00F03BF9019963
:102210008019461807E0039803990078491C039138
:10222000149A139990470198401E0190401CF2D1D6
:102230002146149B139A009800F014F986196D1C1E
:1022400009E741E033E034E00A20002104900591E1
:102250006002410F022905D001CFC217944603291D
:1022600005D007E0FF1DFF08FF0003CF06E000B226
:10227000C2179446042902D140B2C1178C460022ED
:102280006146944506DA0A460021404291418C4657
:102290002D2102E0210504D52B216A46117601216A
:1022A00003E0E10701D02021F7E7019154E00A2083
:1022B0000BE0102009E010200490002104200443CA
:1022C00008200591029003E0082000210591049068
:1022D0006002410F022905D001CF00229446032954
:1022E00006D006E0FF1DFF08FF0003CF8C4603E089
:1022F00080B2042900D1C0B20021019121072BD561
:102300000399702906D0049A1021059B4A401A436C
:1023100005D00EE040216A461176012108E06146B1
:10232000014306D030216A46117603995176022185
:102330000191049A0821059B4A401A430CD1614639
:10234000014301D1610707D530216A461176012189
:1023500001910299491E02910399582904D037A18D
:1023600003910FA90F910DE039A1F9E76146059B93
:10237000049AFDF7F9FE039B8C469B5C0F9A521E54
:102380000F92137061460143F0D10F9807A9081A04
:1023900020300390600704D5012000048443029894
:1023A00001E0012002900399884201DD401A00E01B
:1023B000002041180290019809180098401A0090D6
:1023C000E00306D42146149B139A009800F05AF8B3
:1023D00086190020049008E006A9085C149A139955
:1023E00090470498401C761C049001998842F3DBC6
:1023F000E0030CD52146149B139A009800F042F894
:10240000861904E0149A302013999047761C02999B
:10241000481E02900029F5DC08E00F980F9900781B
:10242000491C0F91149A13999047761C0399481EE2
:1024300003900029F1DCFBE609280100303132333A
:1024400034353637383961626364656600000000F0
:1024500030313233343536373839414243444546DA
:1024600000000000F8B5044600251E461746880403
:1024700004D405E039462020B0476D1C641EF9D510
:102480002846F8BDFFB50446002581B01E46C803A6
:1024900001D5302700E02027880404D505E0384620
:1024A0000399B0476D1C641EF9D5284605B0F0BDF0
:1024B00010B50249FEF7A0FE10BD0000000000208C
:1024C00010B5044601E0FEF797FE2078641C03492E
:1024D0000028F8D10A20FEF78FFE10BD0000002072
:1024E00000000000010203042530325820003100B2
:1024F0001025000800000020080000001C20000833
:102500001825000808000020800C00002C2000087E
:082510000000000000A24A04D3
:04000005080000CD22
:00000001FF
